:04000000B3EF05F065
:1000080000C018F001C017F00CC016F00DC015F0B4
:10001800000E2D1802E1000E2C180FE12C4A2D2A93
:10002800010E406E010E416E230E426E000E436EAD
:1000380077DAD58ED76AD66A39D0D59ED6CF3CF036
:10004800000E3D6ED7CF01F0006A3C5000263D50AF
:10005800012200C03CF001C03DF030EC05F0BD0EBF
:10006800046E370E056E060E066E720E076EC8D940
:1000780045EC05F000C03CF001C03DF030EC05F067
:1000880000C040F001C041F002C042F003C043F09C
:100098002E0E446E000E456ED3DA020E406E010E2F
:1000A800416E2E0E426E000E436E3ADA81CF3FF05B
:1000B800F29018C000F017C001F016C00CF015C07F
:0400C8000DF0110026
:1000CC000F0E0C6E470E0D6E0D2EFED70C2EFCD7A0
:0600DC000000000012000C
:0600E20000000000120006
:0A00E800210E0D6E0D2EFED7120042
:0800F2000AAE029E000E12008E
:1000FA000B840BAE88EF00F0010E036E026A016AF0
:0A010A00006A0A360232FF0E1200EE
:1001140052BE02D0839E01D0838E52BC02D0839CF7
:1001240001D0838C52BA02D0839A01D0838A52B808
:1001340002D0839801D083883EB002D0838401D05A
:1001440083948386CCDF839652B602D0839E01D0FB
:10015400838E52B402D0839C01D0838C52B202D0DD
:10016400839A01D0838A52B002D0839801D08388C5
:100174003EB002D0838401D083948386B0DF83961B
:0C0184003EA002D0A1DF01D0ADDF1200D0
:0E019000026A016A006A086A036A000E120021
:10019E000B820BAED9EF00F00368026801680068AD
:0801AE000A360232FF0E1200B6
:1001B6000C6A0E6A0250D8A4F4EF00F001C002F0F7
:1001C60000C001F0006A0E860250D8A4F4EF00F0D9
:1001D60001C002F0016A0E960E880250D8B406EFEE
:1001E60001F00E50035ED8A4D8A00BEF01F0D89012
:1001F60002BE10EF01F0003601360236032EFBEF89
:1002060000F00BEF01F0010E0C6EBFDF13EF01F0F3
:10021600020E0C6E6FDF13EF01F0040E0C6E66DF3C
:020226001200C4
:0C0228003E904EC052F072DF3E8012008B
:100234004EC004F04FC005F004C002F005C003F046
:10024400044A052A50C000F051C001F0504A512A16
:1002540000C0E9FF01C0EAFF02C0E1FF03C0E2FF02
:10026400EECFE6FF02C0E9FF03C0EAFFEE5201E071
:0C027400E3D74EC000F04FC001F01200B4
:100280000B800BAE4CEF01F0026A0AAEFF0E026E5D
:0C029000016E006E0A360232FF0E1200F2
:10029C000D6A086A0050D8B4000C04180A6E0ABE25
:1002AC000D1E0B6A04AE02D0041E042A00AE02D04E
:1002BC00001E002A005004100A6E0ABE1FD0045003
:1002CC00085E003600340836045008260036060E48
:1002DC000C6E00340836045000B0085E00A00826EE
:1002EC0000360C2EF6D700A008260BB015D00DAE9C
:1002FC00000C001E002A081E082A000C04AE09D0AF
:10030C0000BE04D00050086E006AF1D7006A002AC3
:10031C00000C001E0B2AD3D7082A0450085CD8A462
:0E032C00E6D7086A002A00AEE2D7FF0C1200E6
:10033A000A6A0350D8A40A800750D8A40A820A502D
:10034A00D8B400EF02F0030AD8B4B9EF01F00AB04A
:10035A00B4EF01F006AEFEEF01F0FCEF01F002AEE1
:10036A00FCEF01F0FEEF01F00250800B0A6E029ED4
:10037A000650800B069E0A18D8B4CAEF01F00A503C
:10038A00D8B4FCEF01F0FEEF01F00750035CD8B4DB
:10039A00D4EF01F0D8A0F0EF01F0F6EF01F006502B
:1003AA00025CD8B4DEEF01F0D8A0F0EF01F0F6EF6E
:1003BA0001F00550015CD8B4E8EF01F0D8A0F0EFE5
:1003CA0001F0F6EF01F00450005CD8B400EF02F03F
:1003DA00D8B0F6EF01F00A52D8B4FEEF01F0FCEF04
:1003EA0001F00A52D8B4FCEF01F0FEEF01F0D88018
:0E03FA001200D8901200D880D8841200120091
:10040800086A096A000E0762036489EF02F0025065
:1004180006180A6E075003267E0ED8A01AEF02F0BF
:10042800035ED8B08DEF02F01EEF02F0035ED8A095
:1004380091EF02F0028E068E02C00EF001C00BF0A2
:1004480000C00DF000500402F4CF0CF0015005027A
:10045800F4CF00F0F3CF08F00402F3500C26F45068
:100468000822000E00220D500502F3500C26F4500D
:100478000822000E002202500402F3500826F4500D
:10048800002202500502016A000E0122F3500026E4
:10049800F45001220D500602F3500826F4500022B1
:1004A800026A000E012202220B500602F3500026B7
:1004B800F4500122000E02220E500602F3500126CB
:1004C800F450022202BE71EF02F0083600360136FF
:1004D80002360306D8B491EF02F084EF02F0D88018
:1004E800800E08640030000E002201220222D8A0EB
:1004F80084EF02F0023201320032034A8DEF02F03B
:100508000AAE029E000E93EF02F0010E3DDE93EF5D
:1005180002F0020E40DE93EF02F0040EEADD120054
:100528000FD0800E406E19D0C00E406E16D0940EBB
:10053800406E13D0D40E406E10D0800E406E0DD099
:100548004050010AEEE04050020AEEE04050030A33
:10055800EEE04050040AEEE0F0D74104006E40504F
:10056800002600C040F000C052F0D0DD3E90446A42
:1005780044504224E96E000E4320EA6EEE520BE02E
:1005880044504224E96E000E4320EA6EEECF4EF04E
:0A05980047DE442AEDD73E80120032
:1005A200959695949598959A959C959E8396839405
:1005B200839E839C839A839888DD87DD86DD838A88
:1005C200838883868DDD839680DD838689DD8396AD
:1005D2007CDD838685DD839678DD8398838680DD66
:1005E200839673DD83867CDD8396839A838E8386EE
:1005F20077DD83966ADD839E8388838671DD8396A9
:10060200839883866DDD839660DD838669DD8396BC
:100612008388838665DD839658DD8398838660DDD3
:100622008396838E838C838A8388838659DD83961F
:060632004CDD3E801200C9
:100638000900F5CFE6FF0006FBE10106F9E112002B
:100648004C6A4D6A40C048F041C049F042C04AF087
:1006580043C04BF04B50FF0A08E14A50FF0A05E13E
:100668004950FF0A02E14850FF0A0CE144C04EF02D
:1006780045C04FF0190E506E000E516ED7DD030EB7
:10068800006EE9D1010E466E4AAE0ED0800E4A18B1
:10069800006E00C04AF0462A44C0E1FF45C0E2FFB0
:1006A8002D0EE66E444A452A000E006E4B1808E1EE
:1006B80000504A1805E10050491802E14850000A64
:1006C8000BE144C04EF045C04FF0210E506E000EB5
:1006D800516EACDD006ABFD14B50FF0A08E14A50A9
:1006E800000A05E14950000A02E14850000A0CE1FD
:1006F80044C04EF045C04FF01D0E506E000E516EB6
:1007080095DD46C000F0A7D1000E046E000E056E00
:10071800000E066E7F0E076E48C000F049C001F05B
:100728004AC002F04BC003F004DE010ED8B0000E40
:10073800006E00521BE048C000F049C001F04AC0FA
:1007480002F04BC003F0000E046E000E056E200E82
:10075800066E820E076E54DE00C048F001C049F0F4
:1007680002C04AF003C04BF04D06CED7000E046E0F
:10077800000E056E200E066E820E076E48C000F051
:1007880049C001F04AC002F04BC003F0D2DD000EB0
:10079800D8B0010E006E00521BE048C000F049C0FE
:1007A80001F04AC002F04BC003F0CD0E046ECC0E2F
:1007B800056E4C0E066E7B0E076E22DE00C048F0FA
:1007C80001C049F002C04AF003C04BF04D2ACED711
:1007D800FF0E4814086EFF0E4914096E7F0E4A1466
:1007E8000A6E000E4B140B6E08C004F009C005F029
:1007F8000AC006F00BC007F004360490053606362A
:100808000736000E4814006E000E4914016E000EE3
:100818004A14026EFF0E4B14036E00C048F001C06C
:1008280049F002C04AF003C04BF004504810006E73
:1008380005504910016E06504A10026E07504B10C1
:10084800036E00C048F001C049F002C04AF003C07E
:100858004BF07F0E4B5C006E00C047F0010E4B6EF4
:1008680000C004F048C000F049C001F04AC002F0DE
:100878004BC003F0045007E0003600900136023602
:100888000336FF0FF8D700C048F001C049F002C096
:100898004AF003C04BF044C0E1FF45C0E2FF4B50B3
:1008A800300FE66E444A452A800E4D18006E800EC1
:1008B800010A005C08E3800E060A006E800E4D18DF
:1008C800005C01E30AD044C0E1FF45C0E2FF2E0E00
:1008D800E66E444A452A010E4C6E060E476E475096
:1008E800000A54E04B6A48C000F049C001F04AC011
:1008F80002F04BC003F00036009001360236033692
:10090800003600900136023603364850002649501A
:1009180001224A5002224B50032200C048F001C075
:1009280049F002C04AF003C04BF048C000F049C08B
:1009380001F04AC002F04BC003F0003600900136C7
:100948000236033600C048F001C049F002C04AF040
:1009580003C04BF044C0E1FF45C0E2FF4B50300FED
:10096800E66E444A452A4C50000A0EE14D064D50A9
:10097800000A0AE144C0E1FF45C0E2FF2E0EE66E20
:10098800444A452A010E4C6E4706A9D7FF0E442457
:10099800E96EFF0E4520EA6EEE50300A05E1010EC1
:1009A800445E000E455AF2D7FF0E4424E96EFF0E4E
:1009B8004520EA6EEE502E0A04E1010E445E000E58
:1009C800455A4D50000A41E044C0E1FF45C0E2FFEE
:1009D800650EE66E444A452A800E4D18006E800E5C
:1009E800000A005C0BE244C0E1FF45C0E2FF2D0EA7
:1009F800E66E444A452A4D5000084D6E4DC047F0FA
:100A0800800E090A006E800E4D18005C0EE20A0E78
:100A1800046E47C000F03EDC44C0E1FF45C0E2FF81
:100A28000050300FE66E444A452A0A0E046E47C04D
:100A380000F030DC08C000F044C0E1FF45C0E2FF30
:100A48000050300FE66E444A452A44C0E1FF45C0D5
:080A5800E2FFE66A006A1200E9
:100A60000050086E0150006E016A026A036A0B6A48
:100A70000C6A960E036E0A6A00C001F008C000F00E
:0A0A8000086A026ADBEC00F01200C5
:100A8A000B6A0C6A0A6A0350D8B48FEF05F0028E1B
:100A9A008E0E035E03BE57EF05F0D8B457EF05F08C
:100AAA0093EF05F0036C080E035CD8A06EEF05F017
:100ABA00036E013602C001F0026A080E035CD8A078
:100ACA006EEF05F00136016A0350D8A4D89078EF8A
:100ADA0005F00350D8B478EF05F0D890023201320D
:100AEA00032E72EF05F00BBC01A085EF05F0D8A02C
:100AFA0085EF05F0012AD8B4022A02BEA2EF05F05A
:100B0A000AAEA8EF05F0021E011E012AD8B4022A75
:100B1A00A8EF05F0026A016AA8EF05F00B800BAE98
:100B2A00ACEF05F0026A0AAEACEF05F0FF0E026EFA
:100B3A00016E0A360232ACEF05F0010E0C6E40EC83
:100B4A0001F0AEEF05F0000E0C6EAEEF05F0FF0EF1
:0C0B5A000C6E0150006E0250016E120083
:100B6600CFEC05F0070EC16E9388070ED56EF29492
:100B7600F28A81CF3FF0F290F286F28E0FDDFFD738
:020B8600FFD797
:100B9E0010EE19F0150E006E010E016E880EF66E37
:0E0BAE000B0EF76E000EF86E1CEC03F012003A
:040B88004E614E006C
:040B8C00494E460088
:020B9000300033
:090B92005469656D706F3A200092
:020B9B00000058
:020000040030CA
:0D000100220F0EFF0181FF0FC00FE00F4026
:00000001FF
