:040000003EEF00F0DF
:1000080000C015F0F2A213D0F2A811D01650090AB8
:1000180006E11750090A03E1166A176A07D0165055
:10002800090A03E1172A166A01D0162AF292F0A0EB
:1000380016D0F0A614D01650000A08E11750000A8E
:1000480005E1090E166E090E176E08D01650000A43
:1000580004E1090E166E170601D01606F09015C0B9
:0400680000F0110093
:10006C000900F5CFE6FF0006FBE10106F9E11200FD
:10007C00060E166E090E176E3F0E186E060E196ED2
:10008C005B0E1A6E4F0E1B6E660E1C6E6D0E1D6E89
:10009C007D0E1E6E070E1F6E7F0E206E6F0E216E74
:1000AC00956A966A836A846A9380F18CF292F288DC
:1000BC009382F18AF090F086F28E180EE96E000EA3
:1000CC00EA6E1750E926D8B0EA2AEECF83FF849067
:1000DC00340E0C6EF10E0D6E0D2EFED70C2EFCD7C1
:1000EC00000000008480180EE96E000EEA6E1650B7
:1000FC00E926D8B0EA2AEECF83FF8492340E0C6E38
:10010C00F10E0D6E0D2EFED70C2EFCD7000000004C
:06011C008482D3D7FFD757
:020000040030CA
:0D000100220F0EFF0181FF0FC00FE00F4026
:00000001FF
