:1000000016EF00F00000000000EF00F0000000001C
:0A0010000000000000000000F3D71C
:10001C000900F5CFE6FF0006FBE10106F9E112004D
:10002C00010E156E030E166E070E176E0F0E186E60
:10003C001F0E196E3F0E1A6E7F0E1B6EFF0E1C6E7E
:10004C001D6A070EC16E946A826A016A026A800E8A
:10005C000218006E800E005C02E1090E015C18E2D1
:10006C00150E0124E96E000E0220EA6EEECF82FF1F
:10007C00020E0B6E040E0C6EBA0E0D6E0D2EFED70C
:10008C000C2EFCD70B2EFAD70000014A022ADFD720
:04009C00DCD7FFD7D7
:020000040030CA
:0D000100220F0EFF0181FF0FC00FE00F4026
:00000001FF
