:100000000EEF00F00000000000EF00F00000000024
:0A0010000000000000000000F3D71C
:10001C003F0E156E060E166E5B0E176E4F0E186E9B
:10002C00660E196E6D0E1A6E7C0E1B6E070E1C6E14
:10003C007F0E1D6E670E1E6E070EC16E956A836A6B
:10004C00926A806A036A046A800E0418006E800E3D
:10005C00005C02E1060E035C47E2016A026A800E54
:10006C000218006E800E005C02E10A0E015C39E29F
:10007C00056A066A800E0618006E800E005C02E1AE
:10008C00190E055C2BE2150E0124E96E000E022000
:10009C00EA6EEECF83FF8080340E0C6EF10E0D6E87
:1000AC000D2EFED70C2EFCD7000000008090150EF4
:1000BC000324E96E000E0420EA6EEECF83FF8082EB
:1000CC00340E0C6EF10E0D6E0D2EFED70C2EFCD7D1
:1000DC00000000008092054A062ACCD7014A022A69
:0C00EC00BED7034A042AB0D7ADD7FFD717
:020000040030CA
:0D000100220F0EFF0181FF0FC00FE00F4026
:00000001FF
