:0400000078EF01F0A4
:1000080000C018F001C017F00CC016F00DC015F0B4
:10001800F2A01DD0F2A61BD022C02AF02A322A9EB6
:10002800250E2B6E000E2C6E26D9010E2A6E010E9F
:100038002B6E190E2C6E000E2D6E78D8250E2A6E9A
:10004800000E2B6E03D981CF29F0F290222A18C016
:1000580000F017C001F016C00CF015C00DF011002B
:100068000F0E0C6E470E0D6E0D2EFED70C2EFCD704
:0600780000000000120070
:06007E000000000012006A
:0A008400210E0D6E0D2EFED71200A6
:10008E0031BE02D0839E01D0838E31BC02D0839CC0
:10009E0001D0838C31BA02D0839A01D0838A31B8D1
:1000AE0002D0839801D0838824B002D0838401D0FB
:1000BE0083948386DDDF839631B602D0839E01D092
:1000CE00838E31B402D0839C01D0838C31B202D0A6
:1000DE00839A01D0838A31B002D0839801D083886D
:1000EE0024B002D0838401D083948386C1DF8396AB
:0C00FE0024A002D0B2DF01D0BEDF12004F
:10010A00086A080E0C6E003408360450085ED8B02F
:0E011A0002D00826D89000360C2EF5D7120021
:0C012800249030C031F0AFDF24801200C2
:100134000FD0800E2A6E19D0C00E2A6E16D0940EDF
:100144002A6E13D0D40E2A6E10D0800E2A6E0DD0D3
:100154002A50010AEEE02A50020AEEE02A50030A6D
:10016400EEE02A50040AEEE0F0D72B04006E2A5089
:10017400002600C02AF000C031F087DF24902E6AE8
:100184002E502C24E96E000E2D20EA6EEE520BE068
:100194002E502C24E96E000E2D20EA6EEECF30F0A6
:0A01A400C1DF2E2AEDD724801200DF
:1001AE00959695949598959A959C959E83968394FD
:1001BE00839E839C839A839850DF4FDF4EDF838A22
:1001CE008388838655DF839648DF838651DF839647
:1001DE0044DF83864DDF839640DF8398838648DF36
:1001EE0083963BDF838644DF8396839A838E838652
:1001FE003FDF839632DF839E8388838639DF839643
:10020E008398838635DF839628DF838631DF839656
:10021E00838883862DDF839620DF8398838628DF6D
:10022E008396838E838C838A8388838621DF83964D
:06023E0014DF2480120011
:100244000900F5CFE6FF0006FBE10106F9E1120023
:100254002C6A2C502A24E96E000E2B20EA6EEE52F2
:100264000BE02C502A24E96E000E2B20EA6EEECF10
:0A02740030F058DF2C2AEDD71200FD
:10027E002D6A030E2D5C0AE22D502B24E16E000E2A
:10028E002C20E26E200EE66E2D2AF3D72D502B2455
:10029E00E16E000E2C20E26EE66A2D062D502B2408
:1002AE002E6E000E2C202F6E0A0E046E2AC000F049
:1002BE0025DF08C000F0300E00262EC0E1FF2FC053
:1002CE00E2FF00C0E6FF0A0E046E2AC000F016DF41
:1002DE0000C02AF00050000A01E102D02D06DED740
:0202EE001200FC
:1002F000500E196E750E1A6E6C0E1B6E730E1C6E00
:100300006F0E1D6E730E1E6E3A0E1F6E200E206E47
:10031000216A226A236A070EC16E92889388F19E31
:1003200081CF29F0F290F296F28E41DF80A812D0B0
:10033000235210E0F2863D0E0B6EE10E0C6E3F0E66
:100340000D6E0D2EFED70C2EFCD70B2EFAD700000B
:100350000000226AF296000E80B8010E236EE6D7E6
:02036000FFD7C5
:020000040030CA
:0D000100220F0EFF0181FF0FC00FE00F4026
:00000001FF
