:040000003DEF00F0E0
:1000080015520BE180B003D0809A156A05D080A004
:1000180003D0809A010E156E2AD015520CE080B0DC
:1000280004D0808A020E156E05D080A003D0809A75
:10003800010E156E1CD01550020A0CE180B004D0D8
:10004800808A020E156E05D080A003D0808A030E28
:10005800156E0DD01550030A0AE180B003D0809ABE
:10006800156A05D080A003D0808A030E156EF2941D
:02007800110075
:10007A00070EC16E9280929A809A156A810ED56E89
:10008A00F294F28AF28E3C0ED76EB00ED66EFFD77D
:02009A00FFD78E
:020000040030CA
:0D000100220F0EFF0181FF0FC00FE00F4026
:00000001FF
