:04000000CDEF06F04A
:1000080000C018F001C017F00CC016F00DC015F0B4
:10001800F2A209D0F2A807D0232A23500208D8A0B8
:10002800236AC284F292F2A406D0480ED76EE50E77
:10003800D66EC284F2949EAC54D0C3CF00F000C0F8
:1000480036F077DB230E046EDB0E056E790E066E36
:100058007D0E076EA5DA0CEC06F000C034F001C086
:1000680035F02350000A03E1430E326E13D02350BB
:10007800010A07E1110E3426010E35224B0E326EAD
:1000880009D02350020A06E1200E3426000E35223C
:10009800460E326E010E496E57D834C000F035C096
:1000A80001F07AEC06F000C037F001C038F002C069
:1000B80039F003C03AF0240E3B6E000E3C6E9ADB1A
:1000C800010E376E010E386E240E396E000E3A6E30
:1000D8008EEC06F0DF0E456E05D932C045F002D928
:1000E8009E9C18C000F017C001F016C00CF015C097
:0400F8000DF01100F6
:1000FC000F0E0C6E470E0D6E0D2EFED70C2EFCD770
:06010C00000000001200DB
:06011200000000001200D5
:0A011800210E0D6E0D2EFED7120011
:100122000B820BAE9BEF00F0036802680168006867
:080132000A360232FF0E120032
:08013A000AAE029E000E120045
:0E014200026A016A006A086A036A000E12006F
:1001500049BE02D0839E01D0838E49BC02D0839CCD
:1001600001D0838C49BA02D0839A01D0838A49B8DE
:1001700002D0839801D0838833B002D0838401D029
:1001800083948386C6DF839649B602D0839E01D0CE
:10019000838E49B402D0839C01D0838C49B202D0B3
:1001A000839A01D0838A49B002D0839801D0838892
:1001B00033B002D0838401D083948386AADF8396F0
:0C01C00033A002D09BDF01D0A7DF1200AB
:1001CC000B840BAEF1EF00F0010E036E026A016AB4
:0A01DC00006A0A360232FF0E12001C
:1001E6000D6A086A0050D8B4000C04180A6E0ABEDC
:1001F6000D1E0B6A04AE02D0041E042A00AE02D005
:10020600001E002A005004100A6E0ABE1FD00450B9
:10021600085E003600340836045008260036060EFE
:100226000C6E00340836045000B0085E00A00826A4
:1002360000360C2EF6D700A008260BB015D00DAE52
:10024600000C001E002A081E082A000C04AE09D065
:1002560000BE04D00050086E006AF1D7006A002A7A
:10026600000C001E0B2AD3D7082A0450085CD8A419
:0E027600E6D7086A002A00AEE2D7FF0C12009D
:100284000B800BAE4EEF01F0026A0AAEFF0E026E57
:0C029400016E006E0A360232FF0E1200EE
:1002A00045C004F046C005F004C002F005C003F0EC
:1002B000044A052A47C000F048C001F0474A482ACE
:1002C00000C0E9FF01C0EAFF02C0E1FF03C0E2FF96
:1002D000EECFE6FF02C0E9FF03C0EAFFEE5201E005
:0C02E000E3D745C000F046C001F012005A
:0C02EC00339045C049F02EDF3380120033
:1002F8000A6A0350D8A40A800750D8A40A820A5070
:10030800D8B4DFEF01F0030AD8B498EF01F00AB0CF
:1003180093EF01F006AEDDEF01F0DBEF01F002AE86
:10032800DBEF01F0DDEF01F00250800B0A6E029E58
:100338000650800B069E0A18D8B4A9EF01F00A509F
:10034800D8B4DBEF01F0DDEF01F00750035CD8B45F
:10035800B3EF01F0D8A0CFEF01F0D5EF01F00650D0
:10036800025CD8B4BDEF01F0D8A0CFEF01F0D5EF13
:1003780001F00550015CD8B4C7EF01F0D8A0CFEF69
:1003880001F0D5EF01F00450005CD8B4DFEF01F0C4
:10039800D8B0D5EF01F00A52D8B4DDEF01F0DBEFA9
:1003A80001F00A52D8B4DBEF01F0DDEF01F0D8809C
:0E03B8001200D8901200D880D88412001200D3
:1003C6000CB025EF02F00CA2CBEF02F00E6A000E85
:1003D60002643CEF02F0F00E0214D8A407EF02F01C
:1003E600023A01380F0B02260138F00B016E003875
:1003F6000F0B01260038F00B006E08380F0B002695
:100406000838F00B086E0E84D89002BE20EF02F07A
:1004160008360036013602360E2A02BE20EF02F0FA
:1004260008360036013602360E2A02BE20EF02F0EA
:1004360008360036013602360E2A0E500364C1EF26
:1004460002F0035E0BBC08AEC6EF02F0D880800E49
:1004560008640030000E002201220222D8A0C6EF56
:1004660002F0023201320032034ACBEF02F0C6EF4D
:1004760002F001C002F000C001F008C000F0086AF6
:10048600000E0E86026473EF02F0F00E0214D8A47A
:100496005BEF02F0023A01380F0B02260138F00B2F
:1004A600016E00380F0B01260038F00B006E0E842B
:1004B600D89002BE20EF02F00036013602360E2A30
:1004C60002BE20EF02F00036013602360E2A02BEC8
:1004D60020EF02F00036013602360E2A20EF02F037
:1004E60001C002F000C001F0006A000E0E960E88F0
:1004F6000264A0EF02F0F00E0214D8A48BEF02F013
:10050600023A01380F0B02260138F00B016E0E84F9
:10051600D89002BE20EF02F0013602360E2A02BE45
:1005260020EF02F0013602360E2A02BE20EF02F05C
:10053600013602360E2A20EF02F001C002F0016AEF
:10054600000E0E860264D0EF02F0F00E0214D8A45C
:10055600AFEF02F0023A0E84D89002BE20EF02F00E
:1005660002360E2A02BE20EF02F002360E2A02BE24
:1005760020EF02F002360E2A20EF02F0010E0C6E7A
:1005860022DED3EF02F0020E0C6ED4DDD3EF02F0C2
:10059600040E0C6EC3DDD3EF02F0080E0C6ECEDD3A
:0205A600120041
:1005A800086A096A000E0762036459EF03F00250F3
:1005B80006180A6E075003267E0ED8A0EAEF02F04E
:1005C800035ED8B05DEF03F0EEEF02F0035ED8A053
:1005D80061EF03F0028E068E02C00EF001C00BF030
:1005E80000C00DF000500402F4CF0CF001500502D9
:1005F800F4CF00F0F3CF08F00402F3500C26F450C7
:100608000822000E00220D500502F3500C26F4506B
:100618000822000E002202500402F3500826F4506B
:10062800002202500502016A000E0122F350002642
:10063800F45001220D500602F3500826F45000220F
:10064800026A000E012202220B500602F350002615
:10065800F4500122000E02220E500602F350012629
:10066800F450022202BE41EF03F00836003601368C
:1006780002360306D8B461EF03F054EF03F0D880D4
:10068800800E08640030000E002201220222D8A049
:1006980054EF03F0023201320032034A5DEF03F0F7
:1006A8000AAE029E000E63EF03F0010E46DD63EF13
:1006B80003F0020E32DD63EF03F0040E83DD120057
:1006C8000C6A0E6A0250D8A47DEF03F001C002F054
:1006D80000C001F0006A0E860250D8A47DEF03F036
:1006E80001C002F0016A0E960E880250D8B48FEF4E
:1006F80003F00E50035ED8A4D8A094EF03F0D8906E
:1007080002BE99EF03F0003601360236032E84EF5D
:1007180003F094EF03F0010E0C6E0FDD9CEF03F075
:10072800020E0C6E4FDD9CEF03F0040E0C6E01DD23
:020738001200AD
:10073A0000C008F00B6A0C6A9E0E036E0A6A026A0F
:0C074A00016A006A020E0C6E39DE12001B
:10075600959695949598959A959C959E839683944F
:10076600839E839C839A8398C6DCC5DCC4DC838A1B
:1007760083888386CBDC8396BEDC8386C7DC839640
:10078600BADC8386C3DC8396B6DC83988386BEDCBC
:100796008396B1DC8386BADC8396839A838E8386BE
:1007A600B5DC8396A8DC839E83888386AFDC83963C
:1007B60083988386ABDC83969EDC8386A7DC839650
:1007C60083888386A3DC839696DC839883869EDC67
:1007D6008396838E838C838A8388838697DC83962D
:0607E6008ADC33801200E2
:1007EC000900F5CFE6FF0006FBE10106F9E1120076
:1007FC00436A446A37C03FF038C040F039C041F01A
:10080C003AC042F04250FF0A08E14150FF0A05E1AC
:10081C004050FF0A02E13F50FF0A0CE13BC045F09B
:10082C003CC046F0190E476E000E486E33DD030EC9
:10083C00006EEBD1010E3D6E41AE0ED0800E411814
:10084C00006E00C041F03D2A3BC0E1FF3CC0E2FF1E
:10085C002D0EE66E3B4A3C2A000E006E421808E153
:10086C000050411805E10050401802E13F50000AC9
:10087C000BE13BC045F03CC046F0210E476E000E2C
:10088C00486E08DD006AC1D14250FF0A08E14150B0
:10089C00000A05E14050000A02E13F50000A0CE159
:1008AC003BC045F03CC046F01D0E476E000E486E36
:1008BC00F1DC3DC000F0A9D1000E046E000E056EF7
:1008CC00000E066E7F0E076E3FC000F040C001F0B8
:1008DC0041C002F042C003F009DD010ED8B0000E99
:1008EC00006E00521BE03FC000F040C001F041C060
:1008FC0002F042C003F0000E046E000E056E200ED6
:10090C00066E820E076E4ADE00C03FF001C040F05A
:10091C0002C041F003C042F04406CED7000E046E74
:10092C00000E056E200E066E820E076E3FC000F0A4
:10093C0040C001F041C002F042C003F0D7DC000E11
:10094C00D8B0010E006E00521BE03FC000F040C05A
:10095C0001F041C002F042C003F0CD0E046ECC0E8B
:10096C00056E4C0E066E7B0E076E18DE00C03FF057
:10097C0001C040F002C041F003C042F0442ACED77F
:10098C00FF0E3F14086EFF0E4014096E7F0E4114CB
:10099C000A6E000E42140B6E08C004F009C005F07C
:1009AC000AC006F00BC007F0043604900536063674
:1009BC000736000E3F14006E000E4014016E000E40
:1009CC004114026EFF0E4214036E00C03FF001C0D2
:1009DC0040F002C041F003C042F004503F10006EE2
:1009EC0005504010016E06504110026E0750421027
:1009FC00036E00C03FF001C040F002C041F003C0E4
:100A0C0042F07F0E425C006E00C03EF0010E426E62
:100A1C0000C004F03FC000F040C001F041C002F043
:100A2C0042C003F0045007E0003600900136023655
:100A3C000336FF0FF8D700C03FF001C040F002C0F2
:100A4C0041F003C042F03BC0E1FF3CC0E2FF42502A
:100A5C00300FE66E3B4A3C2A800E4418006E800E26
:100A6C00010A005C08E3800E060A006E800E441832
:100A7C00005C01E30AD03BC0E1FF3CC0E2FF2E0E5C
:100A8C00E66E3B4A3C2A010E436E060E3E6E3E500D
:100A9C00000A54E0426A3FC000F040C001F041C07F
:100AAC0002F042C003F000360090013602360336E5
:100ABC00003600900136023603363F500026405077
:100ACC000122415002224250032200C03FF001C0DB
:100ADC0040F002C041F003C042F03FC000F040C003
:100AEC0001F041C002F042C003F000360090013624
:100AFC000236033600C03FF001C040F002C041F0A6
:100B0C0003C042F03BC0E1FF3CC0E2FF4250300F5B
:100B1C00E66E3B4A3C2A4350000A0EE14406445020
:100B2C00000A0AE13BC0E1FF3CC0E2FF2E0EE66E7C
:100B3C003B4A3C2A010E436E3E06A9D7FF0E3B24CE
:100B4C00E96EFF0E3C20EA6EEE50300A05E1010E14
:100B5C003B5E000E3C5AF2D7FF0E3B24E96EFF0EB3
:100B6C003C20EA6EEE502E0A04E1010E3B5E000EB4
:100B7C003C5A4450000A43E03BC0E1FF3CC0E2FF5A
:100B8C00650EE66E3B4A3C2A800E4418006E800EC1
:100B9C00000A005C0BE23BC0E1FF3CC0E2FF2D0E03
:100BAC00E66E3B4A3C2A44500008446E44C03EF07A
:100BBC00800E090A006E800E4418005C0FE20A0ECB
:100BCC00046E3EC000F0F3EC00F03BC0E1FF3CC013
:100BDC00E2FF0050300FE66E3B4A3C2A0A0E046ED0
:100BEC003EC000F0F3EC00F008C000F03BC0E1FFA9
:100BFC003CC0E2FF0050300FE66E3B4A3C2A3BC043
:0C0C0C00E1FF3CC0E2FFE66A006A120053
:100C18000B6A0C6A0A6A0350D8B456EF06F0028EC3
:100C28008E0E035E03BE1EEF06F0D8B41EEF06F06C
:100C38005AEF06F0036C080E035CD8A035EF06F0F7
:100C4800036E013602C001F0026A080E035CD8A0E8
:100C580035EF06F00136016A0350D8A4D8903FEF6B
:100C680006F00350D8B43FEF06F0D89002320132B4
:100C7800032E39EF06F00BBC01A04CEF06F0D8A00C
:100C88004CEF06F0012AD8B4022A02BE69EF06F03A
:100C98000AAE6FEF06F0021E011E012AD8B4022A1E
:100CA8006FEF06F0026A016A6FEF06F00B800BAE79
:100CB80073EF06F0026A0AAE73EF06F0FF0E026EDB
:100CC800016E0A36023273EF06F0010E0C6E42EC2A
:100CD80001F075EF06F0000E0C6E75EF06F0FF0ED2
:0C0CE8000C6E0150006E0250016E1200F4
:100CF4000050086E0150006E016A026A036A0B6AB2
:100D04000C6A960E036E0A6A00C001F008C000F077
:080D1400086A026AD7DC120034
:100D1C000FD0800E376E19D0C00E376E16D0940ED1
:100D2C00376E13D0D40E376E10D0800E376E0DD0B8
:100D3C003750010AEEE03750020AEEE03750030A52
:100D4C00EEE03750040AEEE0F0D73804006E37506E
:100D5C00002600C037F000C049F0A8EC00F033903A
:100D6C003B6A3B503924E96E000E3A20EA6EEE5293
:100D7C000CE03B503924E96E000E3A20EA6EEECFBF
:0E0D8C0045F076EC01F03B2AECD733801200E4
:100D9A00EEEC06F09380890EC16E990EC26ED6DC17
:100DAA00850ED56E480ED76EE50ED66EF18CF29290
:100DBA00F288F19EF294F28A9E9C9D8CF28CF28EBD
:060DCA00C284FFD7FFD731
:100DDC0010EE19F00B0E006E010E016ED00EF66EB9
:0E0DEC000D0EF76E000EF86EF6EC03F012001E
:040DD0004E614E0022
:040DD400494E46003E
:020DD8003000E9
:010DDA000018
:020000040030CA
:0D000100220F0EFF0181FF0FC00FE00F4026
:00000001FF
