:040000002FEF05F0E9
:1000080000C018F001C017F00CC016F00DC015F0B4
:100018009E9CC3CF23F0000E246EC4CF01F0006A6B
:10002800235000262450012200C023F001C024F0F0
:10003800B5DA090E046E280E056E200E066E770ED0
:10004800076E15D900C034F001C035F002C036F093
:1000580003C037F000C038F001C039F002C03AF0F0
:1000680003C03BF0250E3C6E000E3D6EE8DA010E33
:100078004A6E51D8010E386E010E396E250E3A6E51
:10008800000E3B6E9FDA0B0E0B6E260E0C6E5D0E8D
:100098000D6E0D2EFED70C2EFCD70B2EFAD70000B6
:1000A8000000C28418C000F017C001F016C00CF0A0
:0600B80015C00DF011005F
:1000BE000F0E0C6E470E0D6E0D2EFED70C2EFCD7AE
:0600CE000000000012001A
:0600D40000000000120014
:0A00DA00210E0D6E0D2EFED7120050
:1000E4000B820BAE7CEF00F00368026801680068C5
:0800F4000A360232FF0E120071
:1000FC000B840BAE89EF00F0010E036E026A016AED
:0A010C00006A0A360232FF0E1200EC
:080116000AAE029E000E120069
:10011E004ABE02D0839E01D0838E4ABC02D0839CFD
:10012E0001D0838C4ABA02D0839A01D0838A4AB80E
:10013E0002D0839801D0838833B002D0838401D05B
:10014E0083948386C0DF83964AB602D0839E01D005
:10015E00838E4AB402D0839C01D0838C4AB202D0E3
:10016E00839A01D0838A4AB002D0839801D08388C3
:10017E0033B002D0838401D083948386A4DF839628
:0C018E0033A002D095DF01D0A1DF1200E9
:0E019A00026A016A006A086A036A000E120017
:1001A8000A6A0350D8A40A800750D8A40A820A50C1
:1001B800D8B437EF01F0030AD8B4F0EF00F00AB072
:1001C800EBEF00F006AE35EF01F033EF01F002AED1
:1001D80033EF01F035EF01F00250800B0A6E029EFA
:1001E8000650800B069E0A18D8B401EF01F00A5099
:1001F800D8B433EF01F035EF01F00750035CD8B401
:100208000BEF01F0D8A027EF01F02DEF01F0065019
:10021800025CD8B415EF01F0D8A027EF01F02DEF5C
:1002280001F00550015CD8B41FEF01F0D8A027EF0A
:1002380001F02DEF01F00450005CD8B437EF01F065
:10024800D8B02DEF01F00A52D8B435EF01F033EFF2
:1002580001F00A52D8B433EF01F035EF01F0D8803D
:0E0268001200D8901200D880D8841200120024
:10027600086A096A000E07620364C0EF01F00250C3
:1002860006180A6E075003267E0ED8A051EF01F01D
:10029600035ED8B0C4EF01F055EF01F0035ED8A0BD
:1002A600C8EF01F0028E068E02C00EF001C00BF000
:1002B60000C00DF000500402F4CF0CF0015005020E
:1002C600F4CF00F0F3CF08F00402F3500C26F450FC
:1002D6000822000E00220D500502F3500C26F450A1
:1002E6000822000E002202500402F3500826F450A1
:1002F600002202500502016A000E0122F350002678
:10030600F45001220D500602F3500826F450002244
:10031600026A000E012202220B500602F35000264A
:10032600F4500122000E02220E500602F35001265E
:10033600F450022202BEA8EF01F00836003601365C
:1003460002360306D8B4C8EF01F0BBEF01F0D8803F
:10035600800E08640030000E002201220222D8A07E
:10036600BBEF01F0023201320032034AC4EF01F062
:100376000AAE029E000ECAEF01F0010E0BDFCAEFB5
:1003860001F0020EACDECAEF01F0040EB4DE12007C
:0C039600339046C04AF0C0DE33801200F5
:1003A2000D6A086A0050D8B4000C04180A6E0ABE1E
:1003B2000D1E0B6A04AE02D0041E042A00AE02D047
:1003C200001E002A005004100A6E0ABE1FD00450FC
:1003D200085E003600340836045008260036060E41
:1003E2000C6E00340836045000B0085E00A00826E7
:1003F20000360C2EF6D700A008260BB015D00DAE95
:10040200000C001E002A081E082A000C04AE09D0A7
:1004120000BE04D00050086E006AF1D7006A002ABC
:10042200000C001E0B2AD3D7082A0450085CD8A45B
:0E043200E6D7086A002A00AEE2D7FF0C1200DF
:100440000C6A0E6A0250D8A439EF02F001C002F023
:1004500000C001F0006A0E860250D8A439EF02F005
:1004600001C002F0016A0E960E880250D8B44BEF1C
:1004700002F00E50035ED8A4D8A050EF02F0D8903E
:1004800002BE55EF02F0003601360236032E40EF71
:1004900002F050EF02F0010E0C6E7FDE58EF02F01A
:1004A000020E0C6E2BDE58EF02F0040E0C6E33DEE3
:0204B000120038
:1004B20046C004F047C005F004C002F005C003F0D6
:1004C200044A052A48C000F049C001F0484A492AB6
:1004D20000C0E9FF01C0EAFF02C0E1FF03C0E2FF82
:1004E200EECFE6FF02C0E9FF03C0EAFFEE5201E0F1
:0C04F200E3D746C000F047C001F0120044
:1004FE00959695949598959A959C959E83968394AA
:10050E00839E839C839A8398D3DDD2DDD1DD838A4B
:10051E0083888386D8DD8396CBDD8386D4DD839670
:10052E00C7DD8386D0DD8396C3DD83988386CBDDDE
:10053E008396BEDD8386C7DD8396839A838E8386FC
:10054E00C2DD8396B5DD839E83888386BCDD83966C
:10055E0083988386B8DD8396ABDD8386B4DD839680
:10056E0083888386B0DD8396A3DD83988386ABDD97
:10057E008396838E838C838A83888386A4DD839679
:06058E0097DD338012002E
:100594000900F5CFE6FF0006FBE10106F9E11200D0
:1005A4000050086E0150006E016A026A036A0B6A09
:1005B4000C6A960E036E0A6A00C001F008C000F0CF
:0805C400086A026A3BDF120025
:1005CC000FD0800E386E19D0C00E386E16D0940E27
:1005DC00386E13D0D40E386E10D0800E386E0DD00D
:1005EC003850010AEEE03850020AEEE03850030AA7
:1005FC00EEE03850040AEEE0F0D73904006E3850C3
:10060C00002600C038F000C04AF083DD33903C6A0D
:10061C003C503A24E96E000E3B20EA6EEE520BE0A1
:10062C003C503A24E96E000E3B20EA6EEECF46F0C9
:0A063C00ACDE3C2AEDD7338012003B
:10064600446A456A38C040F039C041F03AC042F0C9
:100656003BC043F04350FF0A08E14250FF0A05E160
:100666004150FF0A02E14050FF0A0CE13CC046F04F
:100676003DC047F0190E486E000E496E17DF030E97
:10068600006EE9D1010E3E6E42AE0ED0800E4218CB
:10069600006E00C042F03E2A3CC0E1FF3DC0E2FFD2
:1006A6002D0EE66E3C4A3D2A000E006E431808E108
:1006B6000050421805E10050411802E14050000A7E
:1006C6000BE13CC046F03DC047F01D0E486E000EE3
:1006D600496EECDE006ABFD14350FF0A08E1425082
:1006E600000A05E14150000A02E14050000A0CE10F
:1006F6003CC046F03DC047F01F0E486E000E496EE6
:10070600D5DE3EC000F0A7D1000E046E000E056EC9
:10071600000E066E7F0E076E40C000F041C001F06D
:1007260042C002F043C003F03CDD010ED8B0000E1B
:10073600006E00521BE040C000F041C001F042C014
:1007460002F043C003F0000E046E000E056E200E8C
:10075600066E820E076E8CDD00C040F001C041F0CF
:1007660002C042F003C043F04506CED7000E046E29
:10077600000E056E200E066E820E076E40C000F05B
:1007860041C001F042C002F043C003F00ADD000E92
:10079600D8B0010E006E00521BE040C000F041C010
:1007A60001F042C002F043C003F0CD0E046ECC0E41
:1007B600056E4C0E066E7B0E076E5ADD00C040F0CD
:1007C60001C041F002C042F003C043F0452ACED733
:1007D600FF0E4014086EFF0E4114096E7F0E421480
:1007E6000A6E000E43140B6E08C004F009C005F033
:1007F6000AC006F00BC007F004360490053606362C
:100806000736000E4014006E000E4114016E000EF5
:100816004214026EFF0E4314036E00C040F001C086
:1008260041F002C042F003C043F004504010006E95
:1008360005504110016E06504210026E07504310DB
:10084600036E00C040F001C041F002C042F003C098
:1008560043F07F0E435C006E00C03FF0010E436E16
:1008660000C004F040C000F041C001F042C002F0F8
:1008760043C003F0045007E000360090013602360C
:100886000336FF0FF8D700C040F001C041F002C0A8
:1008960042F003C043F03CC0E1FF3DC0E2FF4350DD
:1008A600300FE66E3C4A3D2A800E4518006E800EDB
:1008B600010A005C08E3800E060A006E800E4518E9
:1008C600005C01E30AD03CC0E1FF3DC0E2FF2E0E12
:1008D600E66E3C4A3D2A010E446E060E3F6E3F50C0
:1008E600000A54E0436A40C000F041C001F042C033
:1008F60002F043C003F0003600900136023603369C
:10090600003600900136023603364050002641502C
:100916000122425002224350032200C040F001C08F
:1009260041F002C042F003C043F040C000F041C0B5
:1009360001F042C002F043C003F0003600900136D9
:100946000236033600C040F001C041F002C042F05A
:1009560003C043F03CC0E1FF3DC0E2FF4350300F0F
:10096600E66E3C4A3D2A4450000A0EE145064550D3
:10097600000A0AE13CC0E1FF3DC0E2FF2E0EE66E32
:100986003C4A3D2A010E446E3F06A9D7FF0E3C2481
:10099600E96EFF0E3D20EA6EEE50300A05E1010ECB
:1009A6003C5E000E3D5AF2D7FF0E3C24E96EFF0E68
:1009B6003D20EA6EEE502E0A04E1010E3C5E000E6A
:1009C6003D5A4550000A41E03CC0E1FF3DC0E2FF10
:1009D600650EE66E3C4A3D2A800E4518006E800E76
:1009E600000A005C0BE23CC0E1FF3DC0E2FF2D0EB9
:1009F600E66E3C4A3D2A45500008456E45C03FF02C
:100A0600800E090A006E800E4518005C0EE20A0E82
:100A1600046E3FC000F0C2DC3CC0E1FF3DC0E2FF17
:100A26000050300FE66E3C4A3D2A0A0E046E3FC067
:100A360000F0B4DC08C000F03CC0E1FF3DC0E2FFBE
:100A46000050300FE66E3C4A3D2A3CC0E1FF3DC0F7
:080A5600E2FFE66A006A1200EB
:100A5E0044EC05F09286890EC16E190EC26E48DD09
:0E0A6E009E9C9D8CF28CF28EC284FFD7FFD727
:100A880010EE19F00C0E006E010E016E7C0EF66E63
:0E0A98000A0EF76E000EF86ECAEC02F01200A5
:040A7C004E614E0079
:020A8000300044
:040A8200494E460093
:020A860000006E
:020000040030CA
:0D000100220F0EFF0181FF0FC00FE00F4026
:00000001FF
