:10000000DEEF00F00000000000EF00F00000000054
:0A0010000000000000000000F3D71C
:10001C00086A080E0C6E003408360450085ED8B01E
:0E002C0002D00826D89000360C2EF5D7120010
:10003A000134083609360450085E0550D8A0053C3C
:10004A00095E003601360F0E0C6E01340836093689
:10005A00045000A006D0085E0550D8A0053C095EF1
:10006A0005D008260550D8B0053C092600360136C9
:10007A000C2EEBD700B006D0045008260550D8B095
:08008A00053C092600001200EC
:100092000450000A08E10550000A05E1FF0E006E57
:1000A2007F0E016E57D00D6A096A086A015000106E
:1000B200D8B4000C015005180A6E0ABE0D1E0B6A58
:1000C20005AE05D0041E051E042AD8B4052A01AEC9
:1000D20005D0001E011E002AD8B4012A01500510C5
:1000E2000A6E0ABE10D0A8DF0BB020D00DAE000CF5
:1000F200001E011E002AD8B4012A081E091E082A61
:10010200D8B4092A000C05AE0DD001BE07D00150AB
:10011200096E0050086E016A006AE8D7016A006A37
:10012200002A000C011E001E0B2ADDD7082AD8B4B3
:10013200092A0450085CD8A4D9D70550095CD8A470
:10014200D5D7096A086A002AD8B4012A01AECED7E7
:060152000000FF0C12008A
:10015800150EE96E000EEA6E2150E926D8B0EA2A9B
:06016800EECF82FF120041
:10016E000900F5CFE6FF0006FBE10106F9E11200FA
:10017E00226A010E236E215217E00A0E046E21C070
:10018E0000F045DF08C000F000502302F3CF00F06E
:10019E00005022260A0E046E21C000F038DF00C087
:0E01AE0021F023362390E7D722C000F0120084
:1001BC003F0E156E060E166E5B0E176E4F0E186EFA
:1001CC00660E196E6D0E1A6E7D0E1B6E070E1C6E72
:1001DC007F0E1D6E6F0E1E6E946A010E936E956AE5
:1001EC0081CF1FF01FC021F0C4DF00C020F083B608
:1001FC001DD0E80E046E030E056E20C000F0000E3C
:10020C00016E41DF0A0E046E000E056E3CDF08C065
:10021C0000F009C001F000C021F098DF270E0C6E31
:10022C00F50E0D6E0D2EFED70C2EFCD783B415D00B
:10023C00640E046E20C000F0EBDE0A0E046EE8DEE5
:10024C0008C000F000C021F081DF270E0C6EF50E07
:10025C000D6E0D2EFED70C2EFCD783B215D00A0EC8
:10026C00046E20C000F0D4DE0A0E046ED1DE08C08D
:10027C0000F000C021F06ADF270E0C6EF50E0D6E3B
:10028C000D2EFED70C2EFCD783B012D00A0E046EA6
:10029C0020C000F0BDDE08C000F000C021F056DF29
:1002AC00270E0C6EF50E0D6E0D2EFED70C2EFCD7F8
:0402BC0097D7FFD7FA
:020000040030CA
:0D000100220F0EFF0181FF0FC00FE00F4026
:00000001FF
