:0400000074EF01F0A8
:100008000CC016F00DC015F002D900C017F0010E93
:100018001A6E010E1B6E00C01CF081D881CF19F03A
:0C002800F29016C00CF015C00DF0110095
:100034000F0E0C6E470E0D6E0D2EFED70C2EFCD738
:06004400000000001200A4
:06004A000000000012009E
:0A005000210E0D6E0D2EFED71200DA
:10005A000B6A0A6A096A00500402F4CF09F0F3CF66
:10006A0008F001500502F4CF0BF0F3CF0AF000506C
:10007A000502F3500926F4500A22E86A0B220150BD
:10008A000402F3500926F4500A22E86A0B2208C037
:10009A0000F009C001F00AC002F00BC003F0120020
:1000AA0029BE02D0839E01D0838E29BC02D0839CB4
:1000BA0001D0838C29BA02D0839A01D0838A29B8C5
:1000CA0002D0839801D0838818B002D0838401D0EB
:1000DA0083948386B5DF839629B602D0839E01D0A6
:1000EA00838E29B402D0839C01D0838C29B202D09A
:1000FA00839A01D0838A29B002D0839801D0838859
:10010A0018B002D0838401D08394838699DF8396C2
:0C011A0018A002D08ADF01D096DF12008E
:100126000FD0800E1A6E19D0C00E1A6E16D0940E0D
:100136001A6E13D0D40E1A6E10D0800E1A6E0DD011
:100146001A50010AEEE01A50020AEEE01A50030AAB
:10015600EEE01A50040AEEE0F0D71B04006E1A50C7
:10016600002600C01AF0188000C029F09BDF189006
:0A0176001CC029F097DF188012006A
:10018000959695949598959A959C959E839683942B
:10019000839E839C839A83984DDF4CDF4BDF838A59
:1001A0008388838652DF839645DF83864EDF83967E
:1001B00041DF83864ADF83963DDF8398838645DF70
:1001C000839638DF838641DF8396839A838E838686
:1001D0003CDF83962FDF839E8388838636DF83967A
:1001E0008398838632DF839625DF83862EDF83968E
:1001F000838883862ADF83961DDF8398838625DFA5
:100200008396838E838C838A838883861EDF83967E
:0602100011DF188012004E
:100216001B6A100E1C6E310E1D6E320E1E6E330ED4
:100226001F6E340E206E350E216E360E226E370E80
:10023600236E380E246E390E256E2A0E266E300E6B
:10024600276E230E286E1A0E0C6EF80E0D6E0D2EEE
:10025600FED70C2EFCD700001A6A040E1A5C0BE2BD
:100266001C508114016E0150000A01E104D01C36B5
:100276001C901A2AF2D7010E816EF00E8114016EBF
:100286000150F00A08E081CF00F00036009000C06F
:1002960081FF1B2AF2D7816A060E0C6E300E0D6E98
:1002A6000D2EFED70C2EFCD70000F00E8114016E29
:1002B6000150F00AF1E1030E006E000E016E1AC045
:1002C60004F0000E056EC6DE1D0E0026000E01228D
:1002D6001B500024E96E000E0120EA6EEECF00F0FE
:0202E600120004
:1002E800F00E936E816A956A836AF19E81CF19F048
:0C02F800F290F286F28E40DFFFD7FFD7B5
:020000040030CA
:0D000100220F0EFF0181FF0FC00FE00F4026
:00000001FF
