:1000000016EF00F00000000000EF00F0000000001C
:0A0010000000000000000000F3D71C
:10001C000900F5CFE6FF0006FBE10106F9E112004D
:10002C004DEC00F0070EC16E946A826A938A819A35
:10003C00016A026A800E0218006E800E005C02E1FA
:10004C00100E015C1AE281AA18D0150E0124E96E7B
:10005C00000E0220EA6EEECF82FF020E0B6E040E33
:10006C000C6EBA0E0D6E0D2EFED70C2EFCD70B2E71
:0E007C00FAD70000014A022ADDD7DAD7FFD7F3
:10009A0010EE15F0100E006E010E016E8A0EF66E4D
:0E00AA00000EF76E000EF86E0EEC00F0120065
:10008A000103070F1F3F7FFF80C0E0F0F8FCFEFF6F
:020000040030CA
:0D000100220F0EFF0181FF0FC00FE00F4026
:00000001FF
