:0400000031EF00F0EC
:1000080000C015F0F0A00BD0F0A609D08280870EB2
:10001800D56E480ED76EE50ED66EF090F096F2A427
:1000280011D0F2AA0FD0F294162A020E165C05E23D
:10003800480ED76EE50ED66E05D08290D56AF09040
:0A004800F086166A15C000F01100E2
:100052000900F5CFE6FF0006FBE10106F9E1120017
:10006200166A938294908290F18AF090F086F294CC
:08007200F28AF28EFFD7FFD7DE
:020000040030CA
:0D000100220F0EFF0181FF0FC00FE00F4026
:00000001FF
